:0400000080316E28B5
:10000800803120007F08F300911E0B280C283F2820
:1000180023001908F00070082000DE005E080A3A84
:100028000319172818281F285E080D3A031D1D28D4
:100038001E2830281F28DF08031D232824282628E7
:100048006B286B285F08203E8600013087008101FD
:10005800E301E30ADF013F285E08F0005F08203E65
:10006800860001308700700881000130F0007008B8
:10007800DF073F283F280B1D422843286B28013003
:100088002100A4070030A53D0030A63D0030A73D63
:100098000130A8070030A93D0030AA3D0030AB3D33
:1000A800B901B90A200095010B110D08F000F10102
:1000B800F009F1090630FF00710DF10CF00CFF0B8F
:1000C800602870080339F2007208F9006B28730879
:1000D800FF000900913135292000AB007828013054
:1000E800A6002608AB0778282B0886008701010898
:1000F800203A03198028812873282B088600870155
:100108000108093A031989288A2873288B28A90124
:10011800AA01A8012B088600870101082D3A031DB2
:1001280096289728A0280130A6002608A80701309D
:10013800A6002608AB07D4282B08860087010108EB
:100148002B3A031DA828A928D4280130A600260880
:10015800AB07D428D428D42820002A08A101A10755
:100168002908A001A0070A30A2000030A3009F318F
:10017800B627803120002B08860087010108200758
:10018800A60021080318210AA7002608D03EA900C6
:10019800FF30273DAA000130A6002608AB07D42867
:1001A8002B088600870101089D31C6258031031878
:1001B800DE28DF28B028E02820002808031DE528CD
:1001C800F2282909A6002A09A700A60A0319A70ADE
:1001D8002608A4002708A500F928F9282A08A50157
:1001E800A5072908A401A407F928080064008001CC
:1001F8000131890BFB2800348131820702299C31A7
:10020800D82CF708031D09290A291D2901302100C6
:10021800B202B208031D11291229E42920006E0830
:10022800CF004F08F8000230CF004F08F700E4294C
:10023800E4297708023A031D222923293B29133090
:100248002000BC008530BD007808CF00D0014F08E1
:10025800BE005008BF00BB309F312C2781319D3133
:10026800A02581317808903102208131E42977086E
:10027800033A031D40294129592924302000BC0094
:100288008530BD007808CF00D0014F08BE00500867
:10029800BF00BB309F312C2781319D31A025813192
:1002A8007808903102208131E4297708043A031D47
:1002B8005E295F297729E0302000BC008430BD002A
:1002C8007808CF00D0014F08BE005008BF00BB30EF
:1002D8009F312C2781319D31A025813178089031BB
:1002E80002208131E4297708053A031D7C297D29FC
:1002F8009529F1302000BC008430BD007808CF007B
:10030800D0014F08BE005008BF00BB309F312C27DA
:1003180081319D31A02581317808903102208131C9
:10032800E4297708063A031D9A299B29E429143001
:100338002000BC008430BD00BB309F312C278131A8
:100348009D31A025813120008E1AAB29AC29BE2908
:100358006B08CF004F082100E40020006C08CF0094
:100368004F082100E70020006A08CF004F0821004D
:10037800E200D02920006B08CF004F082100E300DD
:1003880020006C08CF004F082100E60020006A0812
:10039800CF004F082100E1003A082000CF004F08A5
:1003A800EE008D31D22581318C31992481319D31F6
:1003B8007E258131E429E429E429E429E429E42992
:1003C80008002000A1000E14F629210886008701E4
:1003D800010896314D26813101302000A000200807
:1003E800A107F6292108860087018108031DFD2938
:1003F800FE29E929FF2908000034013400340A34B1
:10040800003464340034E83403341034273441347D
:1004180064347234763454347934703465343A340C
:1004280025343134753420345734613469347434A4
:100438003A3400344134633463346C3420344934FE
:100448006E34743465347234763461346C343D34CB
:1004580025343234753400344434653463346C34B0
:10046800203449346E3474346534723476346134EB
:100478006C343D3425343234753400345334743498
:1004880061347234743469346E34673420344934D6
:100498006E34743476343D34253432347534003453
:1004A80044347534743479345B34253433347534D6
:1004B8005D3443346E3474345B34253432347534EB
:1004C8005D3400344134633463346C34203449344B
:1004D8006E34743465347234763461346C343A343E
:1004E80025343234753400344434653463346C3420
:1004F800203449346E34743465347234763461345B
:100508006C343A342534323475340034533474340A
:1005180061347234743469346E3467342034493445
:100528006E34743476343A342534323475340034C5
:10053800533474346F347034703469346E346734BF
:10054800203444347534743479343A3425343234AC
:10055800753400345234653476343D3425343234BD
:1005680075342C34523465347334743472343D34F5
:1005780025343334753400342A34503472346F34AB
:100588006734723461346D344D346F346434653497
:100598002A34203462346B3400342034203420343C
:1005A8002534333475342D343E342534333475349E
:1005B8002D343E3425343334753400342A345034E1
:1005C80072346F346734723461346D344D346F343F
:1005D800643465342A342034663477340034203463
:1005E8002034203420344334683461346E34673422
:1005F800653420344D346F34643465342A3400341F
:100608002A3450346134723461346D34653474344E
:1006180065347234203420342034663477346434BA
:1006280000342A3450346134723461346D346534A2
:1006380074346534723420342034203462346134A4
:100648006B3400342A3450346134723461346D347C
:10065800653474346534723420342034203463347F
:100668006D346E3400345734613469347434203452
:1006780052346534763465347234733465343D34B9
:100688002534333475340034573461346934743460
:1006980020345234653473347434613472347434AD
:1006A8003D3425343334753400342A3450346134BD
:1006B800723461346D346534743465347234203482
:1006C80020346134643472347634003430343A344B
:1006D800523475346E3420346F346E346334653478
:1006E8002034203420342034203420340034323470
:1006F8003A3445346E3464346C346534733473344A
:100708002034723475346E3420342034203400346C
:1007180031343A344134753474346F34203472349B
:100728006534763465347234733465342034203457
:1007380000342A342A34533465346C3465346334D1
:10074800743420344D3465346E3475342A342A3484
:10075800203400342034503472346F3467347234A7
:1007680061346D344D346F34643465342034663408
:100778007734643400342034503461347234613452
:100788006D344334683461346E34673465342034EE
:100798006634773464340034203441347534743426
:1007A8006F342034443472346934763465342034F8
:1007B80054347934703465340034533465346C34CB
:1007C80065346334743420344134753474346F348C
:1007D800443454347934703465340034203450341B
:1007E80072346F346734723461346D344D346F341D
:1007F800643465342034623461346B34003420341A
:1008080050346134723461346D3443346834613443
:100818006E34673465342034623461346B340034A8
:100828006E346F34773420347334613476346934F9
:100838006E346734203470346134723461346D340A
:100848000034203450346134723461346D344334AC
:10085800683461346E3467346534203463346D34FD
:100868006E34003433343A34523465347334743467
:10087800613472347434203462347934203462340C
:1008880074346E340034203450346134723461343A
:100898006D344334683461346E34673465342034DD
:1008A80061346434723400342A344D3461346E3423
:1008B800753461346C3420344D346F3464346534A9
:1008C8002A3420342034203400342A344D3461341E
:1008D8006E34753461346C3420344D346F34643480
:1008E80065342A34203462346B3400342A344C346E
:1008F800413459344F3455345434203443344F340C
:100908004E34543452344F344C342A340034423444
:100918006B343A342534333475342D343E3425342D
:10092800333475342D343E3425343334753400343F
:10093800463477343A342534333475342D343E34E0
:100948002534333475342D343E34253433347534FA
:1009580000342A344134753474346F344434723476
:1009680076344D346F34643465342A34203420347A
:10097800203400345234653473347434613472343E
:10098800743420343A342034253433347534733491
:100998006534633400342A344134753474346F3424
:1009A8004434723476344D346F34643465342A34C4
:1009B800203462346B34003474346F3470347334DC
:1009C800703465346534643444347534743479343B
:1009D8003D3425343334753400347234653464342A
:1009E8007534633469346E3467344434753474341C
:1009F80079343D3425343334753400346134633408
:100A0800633465346C3469346E3467344434753413
:100A1800743479343D3425343334753400347334C4
:100A280074346F347034703469346E3467344434D9
:100A38007534743479343D342534333475340034A2
:100A48007334743461347234743469346E34673492
:100A580044347534743479343D342534333475343E
:100A680000342F346434613474346134733465343D
:100A78006E3464342F344434253475340D340A34D8
:100A880000342F346434613474346134733465341D
:100A98006E3464342F34253463340D340A3400340E
:100AA8002000BB00A82F3A08253A03195C2D5D2DBC
:100AB800862D3B0A860087010108003A0319652D37
:100AC800662D722D3A08AF002F08F4003B0A860005
:100AD80087010108813100218531A82F20003A08BB
:100AE800AF003B08860087010108860087012F08B0
:100AF80081000130AF003B08860087012F0881077D
:100B0800A82FA82FB501B601B3012C0884002D0821
:100B1800850000089D31C6258531031C942D952D2F
:100B2800882E2000B501B601992D0A302000A000BA
:100B38000030A1003608A301A3073508A201A207C7
:100B48009F31B627853120002108B601B607200855
:100B5800B501B5072C0884002D0885000008D03E93
:100B6800AF00FF3003180030B0002F08B507300879
:100B7800B63D0130AC070030AD3D2C0884002D088F
:100B8800850000089D31C62585310318CC2DCD2D53
:100B9800992D882E882E882EC02F200036083902DD
:100BA800031DD82D350838020318DB2DDC2DE12D67
:100BB8003808B5023908B63B0E2EB501B6010E2E1F
:100BC8000E2E3B0A860087010108003A0319ED2D15
:100BD800EE2DFA2D2030AF002F08F4003B0A8600D6
:100BE800870101088131002185310E2E2030200037
:100BF800AF003B08860087010108860087012F089F
:100C080081000130AF003B08860087012F0881076B
:100C18000E2E0E2EFF302000B507FF30B63DFF30F8
:100C28003606031D192EFF303506031D1C2E1D2EFA
:100C3800E52D562E562E3B0A860087010108003AFC
:100C48000319272E282E3C2E370886008701010815
:100C5800AF002F08F4003B0A8600870101088131A4
:100C68000021853101302000AF002F08B707562E2C
:100C78003708860087010108AF003B088600870116
:100C88000108860087012F0881000130AF002F0876
:100C9800B7070130AF003B08860087012F0881079E
:100CA800562E562E0130373E8600870101308102CC
:100CB80041310030813B7F31403FFF3A031D662EB2
:100CC800413FFF3A031D692E6A2E1F2EA82FA82F19
:100CD8002E088600870101088400850102308107FB
:100CE8000008AF002F08BA00792E3A30AF002F085D
:100CF800B7000130B8000030B900D12DC030AF00C6
:100D08002F08B304A12EA12E20002D08B0002C0816
:100D1800AF000130AC070318AD0A2F088400300873
:100D280085000008BA00003A0319C02F633A031976
:100D38006C2E163A0319822E792E2E08860087010A
:100D480001088400850102308107003FB700013F98
:100D5800B800BA01BA0A3A08053A031DB42EB52EEE
:100D6800B72EE02EE02E3A08AF00B0010130AF35C3
:100D7800B00D890BBB2E01302F0784008230303D27
:100D88008500003FB100013FB20032083802031D60
:100D9800CF2E310837020318D22ED32ED52EE02EAF
:100DA800E02E0130AF002F08BA073A08053A031DB4
:100DB800DE2EDF2EB72EE02E3A08AF00B001AF1BB3
:100DC800B0033008803AB1003608803A3102031D7A
:100DD800EF2E35082F020318F22EF32EFE2E2000D8
:100DE8003A08AF00B001AF1BB0032F08B5023008B6
:100DF800B63B022F2000B501B601022F3608350494
:100E08000319072F082F3E2F092F3B0A8600870159
:100E18000108003A0319112F122F1E2F2030AF009E
:100E28002F08F4003B0A8600870101088131002160
:100E38008531312F20302000AF003B088600870124
:100E48000108860087012F0881000130AF003B08A8
:100E5800860087012F088107312FFF302000B50752
:100E6800FF30B63D36083504031D3B2F3C2F092FB4
:100E78003E2F3E2F3A08AF002F08B4009B2F0A30B0
:100E8800A7000030A8003408AF00B0010130AF352A
:100E9800B00D890B4B2F01302F0784008230303D75
:100EA8008500003FA000013FA1003808A301A30767
:100EB8003708A201A2079231972285312000210824
:100EC800AA01AA072008A901A9079131D5218531CE
:100ED80020002708303EB1003108BA003B0A8600DE
:100EE80087010108003A03197A2F7B2F872F3A08C8
:100EF800AF002F08F4003B0A860087010108813102
:100F0800002185319B2F20003A08AF003B0886005E
:100F180087010108860087012F0881000130AF0092
:100F28003B08860087012F0881079B2F9B2FFF30E6
:100F38002000AF002F08B4073408FF3A031DA52F7F
:100F4800A62F432FA82FA82F20002D08B0002C086B
:100F5800AF000130AC070318AD0A2F088400300831
:100F680085000008B1003108BA00BA08031DBD2F7A
:100F7800BE2F572DC02FC02F2000AC01AD01C42FAC
:100F88000800F52F06302000C9004908CA00780873
:100F98004A020318D02FD12FD52F4A08C900490873
:100FA800F8007808C9004908DA009331FF2387312F
:100FB800FE2F03302000C9004908CA0078084A02F9
:100FC8000318E72FE82FEC2F4A08C9004908F80052
:100FD8007808C9004908DA0093316C238731FE2F5D
:100FE800FE2F20005B08003A0319C62F013A0319A7
:080FF800DD2FFE2F0800643418
:1010040020008E1A062807283428E230BC008230DB
:10101400BD00CC309F312C278831D1302000BC005A
:101024008230BD00210064082000C900CA014908BB
:10103400BE004A08BF00210067082000CB00CC0195
:101044004B08C0004C08C100210062082000CD00FC
:10105400CE014D08C2004E08C300BB309F312C277F
:1010640088316228C0302000BC008230BD00CC3002
:101074009F312C278831D1302000BC008230BD0044
:10108400210063082000C900CA014908BE004A08BB
:10109400BF00210066082000CB00CC014B08C00033
:1010A4004C08C100210061082000CD00CE014D088C
:1010B400C2004E08C300BB309F312C278831622800
:1010C4009D31B32588319D31A02588310800FB2846
:1010D40024302000BC008530BD007608C900CA0158
:1010E4004908BE004A08BF00BB309F312C27883115
:1010F4001029760820006806031D8128822892287A
:10110400E030BC008430BD007608C900CA0149083B
:10111400BE004A08BF00BB309F312C2788311029FC
:1011240002302000BC008530BD007608C900CA0129
:101134004908BE004A08BF00BB309F312C278831C4
:1011440010291029760820006006031DAA28AB2860
:10115400BB281330BC008530BD007608C900CA0125
:101164004908BE004A08BF00BB309F312C27883194
:101174001029F1302000BC008430BD007608C9007D
:10118400CA014908BE004A08BF00BB309F312C2762
:10119400883110291029CE2813302000BC00853056
:1011A400BD007608C900CA014908BE004A08BF004C
:1011B400BB309F312C2788311029BE302000BC0061
:1011C4008430BD006208C900CA01C909CA09C90A34
:1011D4000319CA0A21005E0820004907BE004A0814
:1011E40003184A0ABF00BB309F312C2788311029CD
:1011F400102920005508003A0319CE28013A031992
:101204006A28033A03197B28013A0319A428073AE8
:101214000319CE28033A0319DF2810299D31A0258C
:1012240088310800AF2924302000BC008530BD007F
:101234007808C900CA014908BE004A08BF00BB308B
:101244009F312C278931BD29E0302000BC00843037
:10125400BD007808C900CA014908BE004A08BF0099
:10126400BB309F312C278931BD29F1302000BC00CF
:101274008430BD007808C900CA014908BE004A0884
:10128400BF00BB309F312C278931BD29133020008A
:10129400BC008530BD007808C900CA014908BE00F9
:1012A4004A08BF00BB309F312C278931BD29423009
:1012B4002000BC008230BD007808C900CA0149087A
:1012C400BE004A08BF00BB309F312C278931BD299D
:1012D4001E302000BC008230BD007808C900CA015D
:1012E4004908BE004A08BF00BB309F312C27893112
:1012F400BD2930302000BC008230BD007808C90010
:10130400CA014908BE004A08BF00BB309F312C27E0
:101314008931BD2937302000BC008330BD007808F6
:10132400C900CA014908BE004A08BF00BB309F314A
:101334002C278931BD2948302000BC008330BD00F2
:101344007808C900CA014908BE004A08BF00BB307A
:101354009F312C278931BD29BD2920005C08FE3E20
:10136400031CBD298400093004020318BD299831E7
:101374000435003E82009D31A025893108002300F8
:10138400910192013F30F400740895051514130877
:10139400F40074082100E4000030230092000130BE
:1013A40091003F30F4007408950515141308F400F7
:1013B40074082100E70000302300920002309100FD
:1013C4003F30F4007408950515141308F4007408EC
:1013D4002100E200003023009200043091003F30ED
:1013E400F4007408950515141308F400740821001A
:1013F400E300003023009200053091003F30F400F8
:101404007408950515141308F40074082100E60007
:10141400003023009200063091003F30F40074083D
:10142400950515141308F40074082100E100003038
:1014340023009200083091003F30F40074089505B1
:1014440015141308F40074082000EE000030230083
:101454009200093091003F30F4007408950515148A
:101464001308F40074082100DD000030230092000A
:101474000A3091003F30F4007408950515141308E0
:10148400F40074082100E0000030230092000B30C7
:1014940091003F30F4007408950515141308F40006
:1014A40074082100E5000030230092000C30910004
:1014B4003F30F4007408950515141308F4007408FB
:1014C4002000ED000030230092000D3091003F30E9
:1014D400F4007408950515141308F4007408210029
:1014E400DF000030230092000E3091003F30F40002
:1014F4007408950515141308F40074082100DE001F
:1015040008007E2B7908013A031D892A8A2A902A29
:101514000130F40074082000E507892B7908023AA9
:10152400031D952A962A9C2A0430F400740820008E
:10153400E500892B7908033A031DA12AA22A892BE5
:101544000230F40074082000E500892B892B892BD4
:10155400892BF908031DAF2AB02AB22AE501892B89
:101564007908033A031DB72AB82ABD2A0130F400CA
:101574007408E507892B7908023A031DC22AC32A95
:10158400892B0330F4007408E500892B892B892BFF
:10159400892BF908031DCF2AD02AD22AE501892BE9
:1015A4007908013A031DD72AD82ADB2A0130E5023B
:1015B400892B7908023A031DE02AE12A892B01309C
:1015C400F4007408E507892B892B892B892BF908EA
:1015D400031DED2AEE2AFE2AE5016F08780203189E
:1015E400F42AF52A892B7808013EF4007408F800DF
:1015F40001308B2B8B2B892B7908033A031D032B8A
:10160400042B072B0130E502892B7908013A031DCD
:101614000C2B0D2B892BE501E50A892B892B892BB2
:10162400892BF908031D172B182B1A2BE501892B7D
:101634007908033A031D1F2B202B252B0130F400BE
:101644007408E507892B7908013A031D2A2B2B2BF3
:10165400892B0630F4007408E500892B892B892B2B
:10166400892BF908031D372B382B3A2BE501892BDD
:101674007908013A031D3F2B402B452B0130F40020
:101684007408E507892B7908023A031D4A2B4B2B72
:10169400892B0130E502892B892B892B892BF908A9
:1016A400031D552B562B662BE5017808640203189D
:1016B4005C2B5D2B892B7808FF3EF4007408F8003E
:1016C40001308B2B8B2B892B7908033A031D6B2B51
:1016D4006C2B6F2B0130E502892B7908023A031D2C
:1016E400742B752B892B0430F4007408E500892BC6
:1016F400892B892B892B892B2000650884000730CE
:1017040004020318892B98310435243E82000030EA
:101714008B2B08007D2C2000660876020318932B7F
:10172400942BAA2B0130CB004B08F6077608903196
:1017340002208B31883169208B31760820006606BF
:10174400031DA52BA62B982C2100B501982C982CB1
:1017540001302000CB004B082100B5073508650691
:10176400031DB52BB62B982C2000D4010130CB00DF
:101774004B08D507982C982C982C680876020318E7
:10178400C42BC52B982C0130CB004B08D40754082C
:1017940021005D06031DCF2BD02B982C2000D401F3
:1017A4000130CB004B08F6077608903102208B31CC
:1017B400883169208B31982C982C982C760820003D
:1017C40060020318E62BE72B982C0130CB004B0862
:1017D400D607560821006006031DF12BF22B982C26
:1017E4002000D6010130F6027608903102208B31B8
:1017F400883169208B31982C982C982C76082000FD
:101804006E020318062C072C982C0130F602760879
:10181400903102208B31883169208B3120006E0891
:101824007606031D162C172C982C0530CB004B087C
:10183400D500982C982C982CED08031D222C232CD1
:101844002E2C0A30CB004B082100AD006330200061
:10185400CB004B08D500982C6D08013A031D332C9E
:10186400342C3C2C2100B40106302000CB004B0862
:10187400D500982C6D08023A031D412C422C482CAB
:10188400E2010730CB004B08D500982CD501982CE9
:10189400982C982C982C210034085F06031D532C97
:1018A400542C982C9C31CE248B312000E20107303B
:1018B400CB004B08D500982C982C883169208B31AB
:1018C4002000620821005E06031D692C6A2C982CF6
:1018D4002000D501D50A982C982C01302100AD02A6
:1018E400AD08031D762C772C982C9D317E258B31E9
:1018F400982C982C982C20005508013A03198D2B0C
:10190400033A0319BF2B013A0319E02B073A0319D1
:10191400002C013A03191E2C033A03194D2C013AE9
:1019240003195F2C643A03196F2C982C08002000CB
:101934005708013A031D9F2CA02CC82C7A30BC00F8
:101944008430BD00CC309F312C278C319D31B325A0
:101954008C311A302000CB005E30CA008630C900BA
:10196400C90BB22CCA0BB22CCB0BB22C00001A3010
:101974002000CB005E30CA008630C900C90BC02CE1
:10198400CA0BC02CCB0BC02C0000C82C9C302000F0
:10199400BC008430BD00210064082000C900CA01D5
:1019A4004908BE004A08BF00210067082000CB0098
:1019B400CC014B08C0004C08C10021006208200083
:1019C400CD00CE014D08C2004E08C300CC309F317B
:1019D4002C278C318B302000BC008430BD002100CA
:1019E40063082000C900CA014908BE004A08BF00B4
:1019F400210066082000CB00CC014B08C0004C0835
:101A0400C100210061082000CD00CE014D08C200B4
:101A14004E08C300BB309F312C278C319D31B32538
:101A24008C319D31A0258C3127302000CB000D3026
:101A3400CA004B30C900C90B1D2DCA0B1D2DCB0B81
:101A44001D2D00009C302000BC008230BD006E08BB
:101A5400C900CA014908BE004A08BF00CC309F3102
:101A64002C278C318A302000BC008230BD0021003C
:101A740065082000C900CA014908BE004A08BF0021
:101A8400BB309F312C278C319D31B3258C319D3156
:101A9400A0258C3127302000CB000D30CA004B30FC
:101AA400C900C90B532DCA0B532DCB0B532D00006A
:101AB40066302000BC008230BD0021005D0820009B
:101AC400C900CA014908BE004A08BF00CC309F3192
:101AD4002C278C3178302000BC008230BD002100DE
:101AE40060082000C900CA014908BE004A08BF00B6
:101AF400BB309F312C278C319D31B3258C319D31E6
:101B0400A0258C3127302000CB000D30CA004B308B
:101B1400C900C90B8B2DCA0B8B2DCB0B8B2D000051
:101B24000B302000BC008230BD006D08C900CA0122
:101B34004908BE004A08BF00CC309F312C278C31A5
:101B4400AE302000BC008230BD0021005F082000C0
:101B5400C900CA014908BE004A08BF0021005E0846
:101B64002000CB00CC014B08C0004C08C100BB30A6
:101B74009F312C278C319D31B3258C319D31A0258B
:101B84008C3127302000CB000D30CA004B30C90007
:101B9400C90BCA2DCA0BCA2DCB0BCA2D00000800D5
:101BA400D32D23009518D72DD82DD32DD92D9101C0
:101BB400920121006408230093003F30F40074086C
:101BC4009505200003108B1FE82DE92DEA2D031441
:101BD4008B132300151555309600AA3096009514E2
:101BE40015112000031CF72DF82DFD2D8B17FD2D4D
:101BF400FD2DFD2DFD2D23009518012E022EFD2D0A
:101C04000030920001309100210067082300930006
:101C14003F30F40074089505200003108B1F132E29
:101C2400142E152E03148B1323001515553096000E
:101C3400AA309600951415112000031C222E232E81
:101C4400282E8B17282E282E282E282E2300951870
:101C54002C2E2D2E282E00309200023091002100CF
:101C64006208230093003F30F400740895052000B7
:101C740003108B1F3E2E3F2E402E03148B13230084
:101C8400151555309600AA309600951415112000AC
:101C9400031C4D2E4E2E532E8B17532E532E532E84
:101CA400532E23009518572E582E532E0030920091
:101CB4000430910021006308230093003F30F400B6
:101CC40074089505200003108B1F692E6A2E6B2E55
:101CD40003148B132300151555309600AA30960073
:101CE400951415112000031C782E792E7E2E8B1747
:101CF4007E2E7E2E7E2E7E2E23009518822E832EFF
:101D04007E2E0030920005309100210066082300E9
:101D140093003F30F40074089505200003108B1FD6
:101D2400942E952E962E03148B13230015155530DF
:101D34009600AA309600951415112000031CA32EBA
:101D4400A42EA92E8B17A92EA92EA92EA92E2300C5
:101D54009518AD2EAE2EA92E0030920006309100BB
:101D640021006108230093003F30F40074089505B6
:101D7400200003108B1FBF2EC02EC12E03148B1303
:101D84002300151555309600AA30960095141511A8
:101D94002000031CCE2ECF2ED42E8B17D42ED42E5F
:101DA400D42ED42E23009518D82ED92ED42E00301C
:101DB40092000830910020006E08230093003F3009
:101DC400F40074089505200003108B1FEA2EEB2EF7
:101DD400EC2E03148B132300151555309600AA30EE
:101DE4009600951415112000031CF92EFA2EFF2ECF
:101DF4008B17FF2EFF2EFF2EFF2E23009518032F87
:101E0400042FFF2E003092000930910021005D085C
:101E1400230093003F30F40074089505200003105C
:101E24008B1F152F162F172F03148B132300151533
:101E340055309600AA309600951415112000031C05
:101E4400242F252F2A2F8B172A2F2A2F2A2F2A2F88
:101E5400230095182E2F2F2F2A2F003092000A309E
:101E6400910021006008230093003F30F4007408BF
:101E74009505200003108B1F402F412F422F031480
:101E84008B132300151555309600AA30960095142F
:101E940015112000031C4F2F502F552F8B17552F32
:101EA400552F552F552F23009518592F5A2F552F3D
:101EB400003092000B30910021006508230093004C
:101EC4003F30F40074089505200003108B1F6B2F1E
:101ED4006C2F6D2F03148B132300151555309600AA
:101EE400AA309600951415112000031C7A2F7B2F1D
:101EF400802F8B17802F802F802F802F2300951801
:101F0400842F852F802F003092000C309100200008
:101F14006D08230093003F30F400740895052000F9
:101F240003108B1F962F972F982F03148B132300C6
:101F3400151555309600AA309600951415112000F9
:101F4400031CA52FA62FAB2F8B17AB2FAB2FAB2FBB
:101F5400AB2F23009518AF2FB02FAB2F003092007A
:101F64000D30910021005F08230093003F30F400FE
:101F740074089505200003108B1FC12FC22FC32F97
:101F840003148B132300151555309600AA309600C0
:101F9400951415112000031CD02FD12FD62F8B1789
:101FA400D62FD62FD62FD62F23009518DA2FDB2F36
:101FB400D62F003092000E30910021005E082300DD
:101FC40093003F30F40074089505200003108B1F24
:101FD400EC2FED2FEE2F03148B1323001515553022
:101FE4009600AA309600951415112000031CFB2FAF
:0C1FF400FC2FFF2F8B17FF2FFF2F080082
:102004002000B1006430A4000030A5001B08AD001E
:10201400AE012D08A0002E08A1003108AF00B001C8
:102024002F08A2003008A3009F31B627903120006A
:102034002108A701A7072008A601A6079531702546
:102044009031200024082500910008004028F80859
:10205400031D2D282E284F289D31122590314F28FD
:102064004F289331B52390314F2897315E27903113
:102074004F289231132290314F284F2820005908BD
:10208400003A03192928023A03193328013A03199B
:1020940037280A3A03193B284F280800210023084F
:1020A4002204210420040319582859285B2877287E
:1020B40077289231DD22903121006D086C040319D8
:1020C400642865286E280030A3000030A200013087
:1020D400A1002C30A00077280030A3000030A2001B
:1020E4000030A1000030A000772808008E289D3120
:1020F40062259031A0288B318C239031A028813126
:1021040005219031A0289631D5269031A028873119
:10211400C5279031A028A02820005908003A0319A7
:102124007928013A03197D28033A03198128013AD1
:10213400031985280A3A03198928A0280800893137
:10214400C12190319E310326903100302100A70037
:102154000030A6000030A5000030A4000030AB0021
:102164000030AA000030A9000030A80091310121FC
:1021740090319C31B62490318C31992490319D3129
:102184007E259031C528203095310F25903194312A
:10219400B1249031C528C52880316E282000570805
:1021A400013A0319D628D728FB2800290029FB283F
:1021B4000130F50075082100B3073308053A031D03
:1021C400E428E52800299C31FA24903100290029CB
:1021D400FB280130F50075082100B8073808053AD6
:1021E400031DF528F62800299C31EE24903100299E
:1021F40000292100B301B80100290029080003299E
:10220400342920000E108E100430A400CF30A30017
:102214000330A200A20B0C29A30B0C29A40B0C293C
:102224001329033092315322913121302000A3002D
:102234007630A200A20B1C29A30B1C29000002303B
:10224400923153229131283096314D2691310C3000
:1022540096314D2691319D318F259131063096313D
:102264004D2691310800F601F701F801F9015430C7
:1022740084000030850019308031FA209131A0307B
:102284008400003085003D308031FA2091312030C7
:1022940084000130850040308031FA20913187314B
:1022A400FF279131EF0021009C31B2249131E800E5
:1022B4009C31B3249131E9009C31B4249131EA007A
:1022C4009C31B5249131EB0020009031A1282000ED
:1022D4006E08B2003208F60076089031022091317F
:1022E40020008E1A762977298A2921006408200083
:1022F400B2003208E600210067082000B20032086C
:10230400E800210062082000B2003208E0009D29A4
:10231400210063082000B2003208E60021006608AC
:102324002000B2003208E800210061082000B20059
:102334003208E0009D2908002000CE008E1AA3294F
:10234400A429AD295830BC008430BD00CC309F3165
:102354002C279131B72969302000BC008430BD009E
:10236400CC309F312C279131B7299D31B325913140
:1023740054302000BC008230BD004E08CA00CB019E
:102384004A08BE004B08BF004908CC00CD014C08E8
:10239400C0004D08C100BB309F312C2791319D31C5
:1023A400A025913108002000280827040319DB29FF
:1023B400DC290B2AAB01AB0AE9290130A735A80DAA
:1023C400890BE0290130F5007508AB07E929A81F3E
:1023D400EC29ED29DF29EF29EF2928082A02031D1A
:1023E400F52927082902031CF829F929FE292708B9
:1023F400A9022808AA3BFE290130A836A70C890B9C
:10240400FF290130AB02031D082A092AEF290B2AF0
:102414000B2A2A08A801A8072908A701A707122A36
:102424000800492A352A162A20005A08D200D30166
:102434005208CF005308D0009E315E269231522AB2
:10244400252A252A252A20005A08FE3E9D31EE25FC
:102454009231522A20006D08D2005208F800DB01A4
:10246400DB0A522A522A20005A0884000730040248
:102474000318522A98310435403E8200522A9E3174
:10248400462692319D317E259231522A522A2000CD
:102494005B08003A0319352A013A0319412A522AE2
:1024A4000800F50020000E107518592A5C2A200037
:1024B4008C165E2A20008C127508F4000130F43664
:1024C400890B612A7418672A6A2A20000C166C2A60
:1024D40020000C127508F4000230F436890B6F2AC0
:1024E4007418752A782A20008C157A2A20008C11F9
:1024F4007508F4000330F436890B7D2A7418832A96
:10250400862A20000C15882A20000C111030F400B3
:10251400F40B8A2A000020008E141030F400F40B0F
:10252400912A000020008E1008002000A501A601B9
:102534002108200403199F2AA02AD52AA401A40A49
:10254400AD2A0130A035A10D890BA42A0130F40075
:102554007408A407AD2AA11FB02AB12AA32AB32A5A
:10256400B32A0130A535A60D890BB42A210823020C
:10257400031DBE2A20082202031CC12AC22AC82A1B
:102584002008A2022108A33B2514C82A0130A13641
:10259400A00C890BC92A0130A402031DD22AD32A14
:1025A400B32AD52AD52A2608A101A1072508A00106
:1025B400A007DC2A080001302100EE000030EF0003
:1025C4002000901DE62AE72AEF2A9E31BF26923189
:1025D40041309E31762692311A2B8D1EF22AF32A2F
:1025E400FB2A9031282092314D309E31762692314B
:1025F4001A2B0D1EFE2AFF2A072B9C31AE24923182
:1026040045309E31762692311A2B8D1D0A2B0B2BC9
:10261400132B9E311826923143309E317626923107
:102624001A2B2100EE01EF011A2B1A2B1A2B1A2B4D
:1026340021006F08ED01ED076E08EC01EC07222B79
:1026440008004D2B04302000BC008330BD00CC308A
:102654009F312C2793315C2B15302000BC00833034
:10266400BD00CC309F312C2793315C2B26302000C9
:10267400BC008330BD00CC309F312C2793315C2BC0
:1026840059302000BC008330BD00CC309F312C2752
:1026940093315C2B5C2B20005D08003A0319242B3A
:1026A400013A03192E2B033A0319382B013A031963
:1026B400422B5C2B9D31B3259331F3302000BC00B9
:1026C4008230BD00BB309F312C2793319D31A02532
:1026D40093310800E1302000BC008330BD00CC30D1
:1026E4009F312C2793319D31B3259331A22B6A302E
:1026F4002000BC008330BD00BB309F312C279331B8
:10270400B12B8C302000BC008330BD00BB309F3126
:102714002C279331B12B7B302000BC008330BD00CB
:10272400BB309F312C279331B12B36302000BC00B5
:102734008430BD00BB309F312C279331B12BB12B9A
:1027440020005A08003A0319792B013A0319832B04
:10275400033A03198D2B013A0319972BB12B9D31A1
:10276400A025933108007708023A031DBA2BBB2B2E
:10277400C72B78082000B20032082100BA000330C9
:102784002000B2003208F700FE2B7708033A031D3D
:10279400CC2BCD2BD72B78082000B2003208EB00CD
:1027A4000430B2003208F700FE2B7708043A031D08
:1027B400DC2BDD2BE72B78082000B2003208EC007C
:1027C4000530B2003208F700FE2B7708053A031DE6
:1027D400EC2BED2BFE2B78082000B2003208EA0027
:1027E4000630B2003208F7000030903102209331F5
:1027F400FE2BFE2BFE2BFE2B0800472CAE302000B8
:10280400BC008330BD00BB309F312C279331522C48
:10281400F2302000BC008330BD00BB309F312C2738
:102824009331522CBF302000BC008330BD00BB303C
:102834009F312C279331522C03302000BC0084306C
:10284400BD00BB309F312C279331522C2530200002
:10285400BC008430BD00BB309F312C279331522CF7
:1028640047302000BC008430BD00BB309F312C2792
:102874009331522CD0302000BC008330BD00BB30DB
:102884009F312C279331522C522C20005A0884005B
:10289400073004020318522C98310435323E82006A
:1028A4009D31A025933108002000B6000030A0001F
:1028B4000030A1000830A2000030A3002E309F3168
:1028C4004C2794312000B901BA017C2C3908360711
:1028D400AC002C088600013087000108AD003908DF
:1028E4002E3E860087012D0881000130B907003093
:1028F400BA3D7C2C39083607AC002C088600013020
:1029040087008108031D872C882C682C892C2E3085
:1029140080317020943120002508B801B8072408BC
:10292400B701B707B81F972C982C9C2C0030B02CFB
:10293400B02CAD2C3808803AFF0081307F02031D93
:10294400A52C00303702031CA82CA92CAD2CFF3079
:10295400B02CB02CAD2C20003708B02C080021007E
:102964003908013A031DB72CB82CCD2C8A318322A7
:102974009431003A0319BF2CC02CC42C9E312F264D
:102984009431C42C9F31922794312100B9019031A4
:10299400D0209431CD2C003021002702031DDC2CE3
:1029A40000302602031DDC2C00302502031DDC2C24
:1029B4001F302402031CDF2CE02CEC2C0030A70079
:1029C4000030A6000030A5000030A400903178202B
:1029D4009431EC2C003021002B02031DFB2C003021
:1029E4002A02031DFB2C01302902031DFB2C32306B
:1029F4002802031CFE2CFF2C0B2D0030AB000030F2
:102A0400AA000030A9000030A8009D31DA259431D5
:102A14000B2D90315020943108002100EE00911AC2
:102A2400142D152D172D9116172D2000E308031DC5
:102A34001C2D1D2D1F2D6F2D6F2DE30121006E0800
:102A44008600013087000108ED006D08EF0040307A
:102A54006F02031C2E2D2F2D6F2D5B306F02031C74
:102A6400342D352D5D2D6F2D6F2D5D2D6E08013E9E
:102A74009431562495312100ED006D08EF006F0864
:102A840020006F020318472D482D4D2D6F0821009B
:102A9400ED006D08EF0021006F08ED006D08F800EF
:102AA4006F2D562D562D562D6F089F31DB279531EE
:102AB4006F2D6F2D6F2D21006F08413A0319562D8C
:102AC400023A0319562D073A0319382D013A03190E
:102AD400562D083A0319562D6F2D08002000AA011F
:102AE400A51F752D762D7E2DA409A509A40A031909
:102AF400A50AAA01AA0A7E2DA71F812D822D8C2D3D
:102B0400A609A709A60A0319A70A0130A8002808DC
:102B1400AA068C2DAB01AC01250824040319932DBE
:102B2400942DC92DA901A90AA12D0130A435A50D03
:102B3400890B982D0130A8002808A907A12DA51FED
:102B4400A42DA52D972DA72DA72D0130AB35AC0DA8
:102B5400890BA82D25082702031DB22D240826025F
:102B6400031CB52DB62DBC2D2408A6022508A73BB1
:102B74002B14BC2D0130A536A40C890BBD2D0130BE
:102B8400A902031DC62DC72DA72DC92DC92D2A089D
:102B9400031DCD2DD32DAB09AC09AB0A0319AC0A27
:102BA400D32D2C08A501A5072B08A401A407DA2D11
:102BB400080014302000BC008430BD00BB309F31BD
:102BC4002C2795319D31A0259531372E200067089B
:102BD400CF004F082100E40020006908CF004F080F
:102BE4002100E70020006108CF004F082100E20027
:102BF400462E20006708CF004F082100E300200084
:102C04006908CF004F082100E60020006108CF00CA
:102C14004F082100E100462E210037082000CF0094
:102C24004F08EE00210036082000CF004F08210095
:102C3400E5002C082000CF004F082100DD003008FB
:102C44002000CF004F082100E000462E21002F086D
:102C54002000CF004F082100DF002E082000CF0005
:102C64004F082100DE00462E462E20005D08003A63
:102C74000319E82D013A0319FB2D033A03190E2E0B
:102C8400013A0319282E462E8D31D22595318C31E7
:102C9400992495310800F5007508F4000430F436E1
:102CA400890B512E7418572E5A2E20008C165C2E28
:102CB40020008C127508F4000530F436890B5F2E61
:102CC4007418652E682E20000C166A2E20000C1233
:102CD4007508F4000630F436890B6D2E7418732EC3
:102CE400762E20008C15782E20008C117508F400A7
:102CF4000730F436890B7B2E7418812E842E200025
:102D04000C15862E20000C111030F400F40B882EC4
:102D1400000020008E141030F400F40B8F2E0000FD
:102D240020008E107518972E9A2E20008C169C2E3B
:102D340020008C127508F4000130F436890B9F2EA4
:102D44007418A52EA82E20000C16AA2E20000C12F2
:102D54007508F4000230F436890BAD2E7418B32EC6
:102D6400B62E20008C15B82E20008C117508F400A6
:102D74000330F436890BBB2E7418C12EC42E2000E8
:102D84000C15C62E20000C111030F400F40BC82EC4
:102D9400000020008E141030F400F40BCF2E00003D
:102DA40020008E100800392F01302100B102B10833
:102DB400031DDD2EDE2E5D2F20005D08031DE32E96
:102DC400EA2E5D08013A031DE82EE92E012FEA2EB2
:102DD400DD08031DEE2EEF2EF62E210064082000E0
:102DE400D0005008F800FC2E210063082000D00019
:102DF4005008F8000230D0005008DC005D2F5D0858
:102E0400023A031D062F072F102F6E08D00050081A
:102E1400F8000530D0005008DC005D2F5D08033A4F
:102E2400031D152F162F5D2F21005F082000D000F1
:102E34005008F8000930D0005008DC005D2F5D2FE9
:102E44005D2F5D2F5D2F2D2F2D2F2D2F2D2F2D2F0E
:102E54002D2F2D2F2D2F8931142196315D2F953152
:102E6400DB2596319D317E2596315D2F5D2F200027
:102E74005C08003A0319D62E023A03192D2F013AA1
:102E840003192D2F073A03192D2F013A03192D2F5A
:102E9400033A03192D2F013A03192D2F0F3A031961
:102EA4002D2F013A03192D2F033A03192D2F693AB7
:102EB4000319312F5D2F0800F12F7808F4007408EE
:102EC4002000E700DD08031D682F692F6F2F210004
:102ED4006708F4007408F800742F21006608F400F1
:102EE4007408F8000330F40074082000DC00FF2F9D
:102EF4007808F4007408E9005D08013A031D832F83
:102F0400842F8A2F21006208F4007408F8008F2FA0
:102F140021006108F4007408F8000430F400740817
:102F24002000DC00FF2F7808F4007408E10063300F
:102F3400F4007408DC00FF2F7808F4007408210002
:102F4400B7006508F4007408F8000630F40074084B
:102F54002000DC00FF2F7808F40074082100B6007C
:102F64005D08F4007408F8000730F40074082000C9
:102F7400DC00FF2F7808F40074082100AC0060081E
:102F8400F4007408F8000830F40074082000DC0031
:102F9400FF2F7808F40074082100B0006330F400B7
:102FA40074082000DC00FF2F7808F4007408210066
:102FB400AF005E08F4007408F8000A30F4007408E6
:102FC4002000DC00FF2F7808F40074082100AE0014
:102FD4006330F40074082000DC00FF2FFF2F200072
:102FE4005C08FE3E031CFF2F840009300402031812
:102FF400FF2F98310435123E8200080089311529CB
:103004008931262989313729893148298931592932
:1030140089316A2989317B2989318C2989319D2912
:1030240097315F2F97317A2F9731952F97319E2FB4
:103034009731AD2F9731BC2F9731CB2F9731D62FA6
:103044009731E52F8A31842A8A31AB2A8A31CB2AF7
:103054008A31E92A8B31132B8B31332B8B31512B52
:103064009431002C94310A2C9431142C94311E2C5C
:103074009431282C9431322C94313C2C9231162AE0
:103084009231162A9231252A9231252A9231252A03
:083094009231252A92312C2A09
:10395C009D317E259C310800003400344034003405
:10396C002000D7010230F4007408D70008000C3096
:10397C00250093009101A03020009B00080020003E
:10398C00D901D801F8017808903102209C31080047
:10399C00203020008E06913169219C319E31F32616
:1039AC009C310800D92C2000111EDD2CDE2CD92CCA
:1039BC00DF2C740823009A00080020005508031D12
:1039CC00E82CEA2CED2CED2C9C31CE249C310800FB
:1039DC0020005908013A031DF42CF52CF92C9D31CB
:1039EC001E259C31F92C080020005908013A031DB2
:1039FC00002D012D052D9D3138259C31052D0800FC
:103A0C00780820006E0203180C2D0D2D0F2D112D92
:103A1C00112D20308E06080009302000C9004908FD
:103A2C00D900DB01DA01F8019D312B259D3108000D
:103A3C0020005508033A031D242D252D2A2D043072
:103A4C00F4007408D5002A2D08009D302000BC001D
:103A5C008330BD00CC309F312C279D319D31B32557
:103A6C009D31080020005508023A031D3E2D3F2DC4
:103A7C00452DD6010330F4007408D500452D0800FF
:103A8C002000D901D90AD501913169219D319E318E
:103A9C00F3269D31883169209D3108000130F400F6
:103AAC0074082000D80758083C3A031D5E2D5F2D82
:103ABC00612DD801612D08007808903102209D31CC
:103ACC0020005808CF004F08C900780891319E217A
:103ADC009D310800722D7D2D243023009E009030E6
:103AEC009D001E119F1540309B0020009112080074
:103AFC002000E30100302100A3000030A2000030C0
:103B0C00A1000030A000B301B8019C31C5249D3147
:103B1C00080020000E10013096314D269D310D30DD
:103B2C002000A100FB30A000A00B9A2DA10B9A2D18
:103B3C009F2D0800A22DB22D00302000A0000030D7
:103B4C00A1000130A2000030A3009F310F279D314E
:103B5C00BB308131E5219D310800B52DC52D0030DC
:103B6C002000A0000030A1000030A2000030A30013
:103B7C009F310F279D31CC308131E5219D310800DB
:103B8C00F500F4013A3075020318CD2DCE2DD72D4A
:103B9C0030307502031CD32DD42DD72DF401F40A2B
:103BAC00D72D740CD92D0800E42D9D3154259D3151
:103BBC00ED2D9E318E269D31ED2DED2D20005908D9
:103BCC00003A0319DB2D013A0319DF2DED2D080006
:103BDC002000CA000330C9004908D900DC01F801F3
:103BEC004A08C9004908DD001430C9004908210001
:103BFC00B100933123239D3108009E31A6269E31BE
:103C0C00853021009500200095018B169D31702583
:103C1C009E319C31BD249E310B178B170430200034
:103C2C009C0008002000D908031D1D2E1E2E232EDB
:103C3C009D3106259E312E2E2E2E20005908013A3C
:103C4C00031D292E2A2E2E2E9C31E3249E312E2E3E
:103C5C00080020005708023A031D352E362E452E3B
:103C6C003530BC008530BD007808C400C50144085F
:103C7C00BE004508BF009E31D9269E31452E080056
:103C8C0014302000BC008430BD00BB309F312C2789
:103C9C009E319D31A0259E3178082000CF004F0821
:103CAC00ED008D31D2259E318C3199249E31080046
:103CBC0002302000D1005108D900F701F8014F184B
:103CCC00682E6B2E20008E166D2E20008E12143056
:103CDC00D10051082100B200883102209E31080029
:103CEC002000C6005708023A031D7D2E7E2E8D2E15
:103CFC004530BC008530BD004608C400C5014408F1
:103D0C00BE004508BF009E31D9269E318D2E08007D
:103D1C009C2E0130F40074082100B407A52E01304C
:103D2C00F40074082000E207A52EA52E20005508EB
:103D3C00063A03198F2E013A0319952EA52E080069
:103D4C0023008C01033021008C0020008C01230007
:103D5C008D01FE3021008D0020008D01803021006E
:103D6C008E0020008E010830210090002000900170
:103D7C000800CF2EF808031DC42EC52ED82E9D3159
:103D8C0046259E31D82ED82E9F316F279E31D82EA6
:103D9C00D82E20005908003A0319C02E013A0319F5
:103DAC00CA2ED82E08002000C2010130C0004008E5
:103DBC00C3003E30C0004008C1003D08AD01AD0756
:103DCC003C08AC01AC074130C0004008AE004230AA
:103DDC00853154259E31F22E080020008E1AF72EC4
:103DEC00F82E012FAD30BC008430BD00CC309F319B
:103DFC002C279E310B2FCF302000BC008430BD000F
:103E0C00CC309F312C279E310B2F9D31B3259E3109
:103E1C00080021006B082000A70021006A08200080
:103E2C00A600210069082000A500210068082000D8
:103E3C00A4000E1022080907243E86008701010801
:103E4C002007803896314D269F3108002000C50090
:103E5C004508C4004408C700C8013E30C4004408EB
:103E6C00C6003D08AD01AD073C08AC01AC074630BF
:103E7C00C4004408AE004730853154259F312000E2
:103E8C0047088600870181014B2F08002000A40001
:103E9C002408F4007408A5005F2F2008F4002508FE
:103EAC0086008701740881000130F4007408A507AE
:103EBC005F2F0130A2020030A33BFF302306031D0D
:103ECC00692FFF302206031D6C2F6D2F532F6E2F81
:103EDC0008002000D508031D742F752F782FD501ED
:103EEC00D50A912F5508023A031D7D2F7E2F842F62
:103EFC00D6010330F4007408D500912F5508033A0D
:103F0C00031D892F8A2F912F0430F4007408D500DB
:103F1C00912F912F912F08002100230822042104B6
:103F2C002004031D9A2F9B2F9D2FB52FB52F0130E9
:103F3C002000A0000030A1000030A2000030A3003F
:103F4C0020082100A002200021082100A13B200014
:103F5C0022082100A23B200023082100A33B0800DB
:103F6C00F401F501B92F2000201CBD2FBE2FC22F4C
:103F7C002208F4072308F53D0130A235A30D890B67
:103F8C00C32F0130A136A00C890BC82F21082004A7
:103F9C00031DD12FD22FB92FD32F7508A101A10743
:103FAC007408A001A007DA2F08002100EC00F02F04
:103FBC009E31BF269F31FF2F903128209F31FF2F3C
:103FCC009C31AE249F31FF2F9E3118269F31FF2F3D
:103FDC00FF2FFF2F21006C08413A0319DE2F023A04
:103FEC000319EA2F063A0319E62F083A0319E22FB0
:043FFC00FF2F08008B
:020000040001F9
:04000E0082CFFFDEC0
:10E00000120018000E00FF00130019000F00FF009F
:10E0100005000C0008001E00000005003700FF008E
:10E02000FF00FF00FF00FF00FF00FF00FF00FF00F8
:10E03000FF00FF00FF00FF00FF00FF00FF00FF00E8
:00000001FF
